{
  "transactions": [
    {
      "hash": "0xe6db272b909ed66e26167cf0049845e9dbc0310a966dd316f17ebaa2d9e312bf",
      "transactionType": "CALL",
      "contractName": null,
      "contractAddress": "0x779877a7b0d9e8603169ddbd7836e478b4624789",
      "function": "transferAndCall(address,uint256,bytes)",
      "arguments": [
        "0x9DdfaCa8183c41ad55329BdeeD9F6A8d53168B1B",
        "1000000000000000000",
        "0xaa7ccc29bc8aba830ebaeccc23db9f7773af609935c24d4d03085905d8270ae3"
      ],
      "transaction": {
        "from": "0xec8e6b06c31cbfc078fa87d5dca574350f3dd4d1",
        "to": "0x779877a7b0d9e8603169ddbd7836e478b4624789",
        "gas": "0x14cbb",
        "value": "0x0",
        "input": "0x4000aea00000000000000000000000009ddfaca8183c41ad55329bdeed9f6a8d53168b1b0000000000000000000000000000000000000000000000000de0b6b3a764000000000000000000000000000000000000000000000000000000000000000000600000000000000000000000000000000000000000000000000000000000000020aa7ccc29bc8aba830ebaeccc23db9f7773af609935c24d4d03085905d8270ae3",
        "nonce": "0x32",
        "chainId": "0xaa36a7"
      },
      "additionalContracts": [],
      "isFixedGasLimit": false
    }
  ],
  "receipts": [
    {
      "status": "0x1",
      "cumulativeGasUsed": "0x96b5d5",
      "logs": [
        {
          "address": "0x779877a7b0d9e8603169ddbd7836e478b4624789",
          "topics": [
            "0xddf252ad1be2c89b69c2b068fc378daa952ba7f163c4a11628f55a4df523b3ef",
            "0x000000000000000000000000ec8e6b06c31cbfc078fa87d5dca574350f3dd4d1",
            "0x0000000000000000000000009ddfaca8183c41ad55329bdeed9f6a8d53168b1b"
          ],
          "data": "0x0000000000000000000000000000000000000000000000000de0b6b3a7640000",
          "blockHash": "0x49036906332126130574fa92cf0d268a5ae07129f59c663383f7c56a1315d855",
          "blockNumber": "0x638794",
          "transactionHash": "0xe6db272b909ed66e26167cf0049845e9dbc0310a966dd316f17ebaa2d9e312bf",
          "transactionIndex": "0x4f",
          "logIndex": "0x86",
          "removed": false
        },
        {
          "address": "0x779877a7b0d9e8603169ddbd7836e478b4624789",
          "topics": [
            "0xe19260aff97b920c7df27010903aeb9c8d2be5d310a2c67824cf3f15396e4c16",
            "0x000000000000000000000000ec8e6b06c31cbfc078fa87d5dca574350f3dd4d1",
            "0x0000000000000000000000009ddfaca8183c41ad55329bdeed9f6a8d53168b1b"
          ],
          "data": "0x0000000000000000000000000000000000000000000000000de0b6b3a764000000000000000000000000000000000000000000000000000000000000000000400000000000000000000000000000000000000000000000000000000000000020aa7ccc29bc8aba830ebaeccc23db9f7773af609935c24d4d03085905d8270ae3",
          "blockHash": "0x49036906332126130574fa92cf0d268a5ae07129f59c663383f7c56a1315d855",
          "blockNumber": "0x638794",
          "transactionHash": "0xe6db272b909ed66e26167cf0049845e9dbc0310a966dd316f17ebaa2d9e312bf",
          "transactionIndex": "0x4f",
          "logIndex": "0x87",
          "removed": false
        },
        {
          "address": "0x9ddfaca8183c41ad55329bdeed9f6a8d53168b1b",
          "topics": [
            "0x1ced9348ff549fceab2ac57cd3a9de38edaaab274b725ee82c23e8fc8c4eec7a",
            "0xaa7ccc29bc8aba830ebaeccc23db9f7773af609935c24d4d03085905d8270ae3"
          ],
          "data": "0x0000000000000000000000000000000000000000000000003782dace9d9000000000000000000000000000000000000000000000000000004563918244f40000",
          "blockHash": "0x49036906332126130574fa92cf0d268a5ae07129f59c663383f7c56a1315d855",
          "blockNumber": "0x638794",
          "transactionHash": "0xe6db272b909ed66e26167cf0049845e9dbc0310a966dd316f17ebaa2d9e312bf",
          "transactionIndex": "0x4f",
          "logIndex": "0x88",
          "removed": false
        }
      ],
      "logsBloom": "0x0000000400000000004000000000000000000000002000000000000002000000000000000000000000000000000000000000000000000000000000000000000000000000000000000000000a000000000000000000000400000020000020000008000000000000200000000000000000000000000000000000000010000040000000000000000000000000010000800000000020000000000000000000000000100000000000000000000000010000000000000000000000000204000000000000000002000000000000000000000000000000000000000100000000000000000010000000000000800000000000000000000000000000000000000000000000",
      "type": "0x2",
      "transactionHash": "0xe6db272b909ed66e26167cf0049845e9dbc0310a966dd316f17ebaa2d9e312bf",
      "transactionIndex": "0x4f",
      "blockHash": "0x49036906332126130574fa92cf0d268a5ae07129f59c663383f7c56a1315d855",
      "blockNumber": "0x638794",
      "gasUsed": "0xf0e5",
      "effectiveGasPrice": "0x8095a320",
      "from": "0xec8e6b06c31cbfc078fa87d5dca574350f3dd4d1",
      "to": "0x779877a7b0d9e8603169ddbd7836e478b4624789",
      "contractAddress": null
    }
  ],
  "libraries": [],
  "pending": [],
  "returns": {},
  "timestamp": 1723967009,
  "chain": 11155111,
  "commit": "011149b"
}