{
  "transactions": [
    {
      "hash": "0x0863ff0629393f550775fc519aaa72ecbbdb8fdfdc47e77d32978ddbb6847e44",
      "transactionType": "CALL",
      "contractName": null,
      "contractAddress": "0x779877a7b0d9e8603169ddbd7836e478b4624789",
      "function": "transferAndCall(address,uint256,bytes)",
      "arguments": [
        "0x9DdfaCa8183c41ad55329BdeeD9F6A8d53168B1B",
        "2000000000000000000",
        "0xaa7ccc29bc8aba830ebaeccc23db9f7773af609935c24d4d03085905d8270ae3"
      ],
      "transaction": {
        "from": "0xec8e6b06c31cbfc078fa87d5dca574350f3dd4d1",
        "to": "0x779877a7b0d9e8603169ddbd7836e478b4624789",
        "gas": "0x14cbb",
        "value": "0x0",
        "input": "0x4000aea00000000000000000000000009ddfaca8183c41ad55329bdeed9f6a8d53168b1b0000000000000000000000000000000000000000000000001bc16d674ec8000000000000000000000000000000000000000000000000000000000000000000600000000000000000000000000000000000000000000000000000000000000020aa7ccc29bc8aba830ebaeccc23db9f7773af609935c24d4d03085905d8270ae3",
        "nonce": "0x33",
        "chainId": "0xaa36a7"
      },
      "additionalContracts": [],
      "isFixedGasLimit": false
    }
  ],
  "receipts": [
    {
      "status": "0x1",
      "cumulativeGasUsed": "0xeb1109",
      "logs": [
        {
          "address": "0x779877a7b0d9e8603169ddbd7836e478b4624789",
          "topics": [
            "0xddf252ad1be2c89b69c2b068fc378daa952ba7f163c4a11628f55a4df523b3ef",
            "0x000000000000000000000000ec8e6b06c31cbfc078fa87d5dca574350f3dd4d1",
            "0x0000000000000000000000009ddfaca8183c41ad55329bdeed9f6a8d53168b1b"
          ],
          "data": "0x0000000000000000000000000000000000000000000000001bc16d674ec80000",
          "blockHash": "0xe8fe41ae0d56de6a8d3db43f670ddc0e82fd8796065e006630c91ca023d3f17f",
          "blockNumber": "0x6387b1",
          "transactionHash": "0x0863ff0629393f550775fc519aaa72ecbbdb8fdfdc47e77d32978ddbb6847e44",
          "transactionIndex": "0x46",
          "logIndex": "0x97",
          "removed": false
        },
        {
          "address": "0x779877a7b0d9e8603169ddbd7836e478b4624789",
          "topics": [
            "0xe19260aff97b920c7df27010903aeb9c8d2be5d310a2c67824cf3f15396e4c16",
            "0x000000000000000000000000ec8e6b06c31cbfc078fa87d5dca574350f3dd4d1",
            "0x0000000000000000000000009ddfaca8183c41ad55329bdeed9f6a8d53168b1b"
          ],
          "data": "0x0000000000000000000000000000000000000000000000001bc16d674ec8000000000000000000000000000000000000000000000000000000000000000000400000000000000000000000000000000000000000000000000000000000000020aa7ccc29bc8aba830ebaeccc23db9f7773af609935c24d4d03085905d8270ae3",
          "blockHash": "0xe8fe41ae0d56de6a8d3db43f670ddc0e82fd8796065e006630c91ca023d3f17f",
          "blockNumber": "0x6387b1",
          "transactionHash": "0x0863ff0629393f550775fc519aaa72ecbbdb8fdfdc47e77d32978ddbb6847e44",
          "transactionIndex": "0x46",
          "logIndex": "0x98",
          "removed": false
        },
        {
          "address": "0x9ddfaca8183c41ad55329bdeed9f6a8d53168b1b",
          "topics": [
            "0x1ced9348ff549fceab2ac57cd3a9de38edaaab274b725ee82c23e8fc8c4eec7a",
            "0xaa7ccc29bc8aba830ebaeccc23db9f7773af609935c24d4d03085905d8270ae3"
          ],
          "data": "0x0000000000000000000000000000000000000000000000004563918244f400000000000000000000000000000000000000000000000000006124fee993bc0000",
          "blockHash": "0xe8fe41ae0d56de6a8d3db43f670ddc0e82fd8796065e006630c91ca023d3f17f",
          "blockNumber": "0x6387b1",
          "transactionHash": "0x0863ff0629393f550775fc519aaa72ecbbdb8fdfdc47e77d32978ddbb6847e44",
          "transactionIndex": "0x46",
          "logIndex": "0x99",
          "removed": false
        }
      ],
      "logsBloom": "0x0000000400000000004000000000000000000000002000000000000002000000000000000000000000000000000000000000000000000000000000000000000000000000000000000000000a000000000000000000000400000020000020000008000000000000200000000000000000000000000000000000000010000040000000000000000000000000010000800000000020000000000000000000000000100000000000000000000000010000000000000000000000000204000000000000000002000000000000000000000000000000000000000100000000000000000010000000000000800000000000000000000000000000000000000000000000",
      "type": "0x2",
      "transactionHash": "0x0863ff0629393f550775fc519aaa72ecbbdb8fdfdc47e77d32978ddbb6847e44",
      "transactionIndex": "0x46",
      "blockHash": "0xe8fe41ae0d56de6a8d3db43f670ddc0e82fd8796065e006630c91ca023d3f17f",
      "blockNumber": "0x6387b1",
      "gasUsed": "0xf0e5",
      "effectiveGasPrice": "0x529287d1",
      "from": "0xec8e6b06c31cbfc078fa87d5dca574350f3dd4d1",
      "to": "0x779877a7b0d9e8603169ddbd7836e478b4624789",
      "contractAddress": null
    }
  ],
  "libraries": [],
  "pending": [],
  "returns": {},
  "timestamp": 1723967393,
  "chain": 11155111,
  "commit": "011149b"
}